:100000000C9428010C9459010C9459010C94590139
:100010000C9459010C9459010C9459010C945901F8
:100020000C9459010C9459010C9459010C945901E8
:100030000C9459010C9459010C9459010C945901D8
:100040000C9459010C9459010C9459010C945901C8
:100050000C9459010C9459010C9459010C941B03F4
:100060000C9459010C948F030C9465030C94590162
:100070000C9459010C9459010C9459010C94590198
:100080000C9459010C9459010C9459010C94590188
:100090000C9459010C9459010C9459010C94590178
:1000A0000C9459010C9459010C9459010C94590168
:1000B0000C9459010C9459010C9459010C94590158
:1000C0000C9459010C9459010C9459010C94590148
:1000D0000C9459010C9459010C9459010C94590138
:1000E0000C9459010C940B030C94B9010C9411035A
:1000F0000C94EF020C94BF020C94D6020C94DE0216
:100100000C9403030C94FD020C9488010C94F101EF
:100110000C943E020C945B010C94E5020C94DA0200
:100120000C9415030C94F9020C94AB010C94C402CA
:100130000C94F5020C94E2020C949A040C94EB02D9
:100140000C9497010C94070300000A0B02090C0D94
:100150000E0807030401000000000000000000007A
:10016000000000000000000000000000000000008F
:10017000000000001211100000000000000000004C
:10018000000000000000000000000000000000006F
:100190002200250028002B002E003100340002012F
:1001A0000000050108010B010000210024002700C8
:1001B0002A002D0030003300010100000401070176
:1001C0000A010505050507050808080802020202DC
:1001D0000A0A0808040404040101010101010101E3
:1001E0000303030303030303040707070C0C0C0CAE
:1001F0000C0C0C0C02020202060606060606060697
:100200000B0B0B0B0B0B0B0B010210202008081023
:100210002040102040800201020108040201010276
:10022000040810204080804020100804020180044F
:1002300002018040201008040201080402010102AA
:1002400004081020408001020408102040809A0415
:1002500011241FBECFEFD1E2DEBFCDBF00E00CBF47
:1002600012E0A0E0B2E0E2EAF9E000E00BBF02C079
:1002700007900D92A231B107D9F722E0A2E1B2E0D6
:1002800001C01D92A83BB207E1F711E0C8E2D1E03E
:1002900000E006C021970109802FFE010E94C704DB
:1002A000C732D10780E00807A9F70E94C5030C9464
:1002B000CF040C940000AF92BF92CF92DF92EF92E6
:1002C000FF920F931F93CF93DF936C017B018B0100
:1002D000040F151FEB015E01AE18BF08C017D10750
:1002E00059F06991D601ED91FC910190F081E02DDA
:1002F000C6011995892B79F7C501DF91CF911F911F
:100300000F91FF90EF90DF90CF90BF90AF90089546
:10031000FC01538D448D252F30E0842F90E0821B0B
:10032000930B541710F0CF96089501970895FC0190
:10033000918D828D981761F0A28DAE0FBF2FB11DE8
:100340005D968C91928D9F5F9F73928F90E0089540
:100350008FEF9FEF0895FC01918D828D981731F0FA
:10036000828DE80FF11D858D90E008958FEF9FEF4E
:100370000895FC01918D228D892F90E0805C9F4F24
:10038000821B91098F739927089582E192E00E9460
:10039000B90121E0892B09F420E0822F0895FC01A6
:1003A000A48DA80FB92FB11DA35ABF4F2C91848DD6
:1003B00090E001968F739927848FA689B7892C9333
:1003C000A089B1898C91837080648C93938D848D86
:1003D000981306C00288F389E02D80818F7D808389
:1003E0000895EF92FF920F931F93CF93DF93EC0149
:1003F00081E0888F9B8D8C8D98131AC0E889F989CC
:10040000808185FF15C09FB7F894EE89FF896083CE
:10041000E889F98980818370806480839FBF81E04F
:1004200090E0DF91CF911F910F91FF90EF90089591
:10043000F62E0B8D10E00F5F1F4F0F731127E02E6C
:100440008C8D8E110CC00FB607FCFACFE889F989A4
:10045000808185FFF5CFCE010E94CF01F1CFEB8DDA
:10046000EC0FFD2FF11DE35AFF4FF0829FB7F89478
:100470000B8FEA89FB8980818062CFCFCF93DF9396
:10048000EC01888D8823B9F0AA89BB89E889F989AC
:100490008C9185FD03C0808186FD0DC00FB607FCE1
:1004A000F7CF8C9185FFF2CF808185FFEDCFCE0114
:1004B0000E94CF01E9CFDF91CF91089580E090E0D5
:1004C000892B29F00E94C50181110E94000080E063
:1004D00090E0892B49F080E090E0892B29F00E9480
:1004E000000081110E94000080E090E0892B49F01B
:1004F00080E090E0892B29F00E94000081110E9489
:10050000000080E090E0892B49F080E090E0892BAA
:1005100029F00E94000081110C9400000895282FFA
:1005200030E0F901E85BFE4F9491F901E85FFD4F7F
:1005300044912E533E4FF9012491222309F435C0F2
:10054000992311F191509231F8F4E92FF0E08827C6
:10055000E355FD4F8F4F0C94C704DE02E202BF0249
:10056000D602DA02C402E502EB02EF02F502F9025A
:10057000FD0203030703C4020B031103150380915B
:1005800080008F7780938000E22FF0E0EE0FFF1F56
:10059000E257FE4FA591B4918FB7F894EC91611199
:1005A00048C040954E234C938FBF089580918000A2
:1005B0008F7DE8CF80918000877FE4CF84B58F77EF
:1005C00084BDE2CF84B58F7DFBCF8091B0008F7763
:1005D0008093B000D9CF8091B0008F7DF9CF80910A
:1005E00090008F7780939000CFCF809190008F7D87
:1005F000F9CF80919000877FF5CF8091A0008F7711
:100600008093A000C1CF8091A0008F7DF9CF809111
:10061000A000877FF5CF809120018F778093200104
:10062000B3CF809120018F7DF9CF80912001877F0A
:10063000F5CF4E2BB8CF1F920F920FB60F92112409
:100640002F933F938F939F93AF93BF938091B40267
:100650009091B502A091B602B091B7023091B30269
:1006600023E0230F2D3758F50196A11DB11D2093CE
:10067000B3028093B4029093B502A093B602B093F4
:10068000B7028091AF029091B002A091B102B091F7
:10069000B2020196A11DB11D8093AF029093B002EA
:1006A000A093B102B093B202BF91AF919F918F918D
:1006B0003F912F910F900FBE0F901F90189526E835
:1006C000230F0296A11DB11DD2CF1F920F920FB61C
:1006D0000F9211240BB60F922F933F934F935F937A
:1006E0006F937F938F939F93AF93BF93EF93FF93FA
:1006F00082E192E00E94CF01FF91EF91BF91AF9113
:100700009F918F917F916F915F914F913F912F9129
:100710000F900BBE0F900FBE0F901F9018951F9259
:100720000F920FB60F9211240BB60F922F938F9347
:100730009F93EF93FF93E0912202F0912302808137
:10074000E0912802F091290282FD1DC090818091E4
:100750002B028F5F8F7320912C02821741F0E09162
:100760002B02F0E0EE5EFD4F958F80932B02FF9100
:10077000EF919F918F912F910F900BBE0F900FBE15
:100780000F901F9018958081F2CF789484B5826085
:1007900084BD84B5816084BD85B5826085BD85B525
:1007A000816085BD80916E00816080936E001092A3
:1007B000810080918100826080938100809181001E
:1007C00081608093810080918000816080938000AF
:1007D0008091B10084608093B1008091B00081600D
:1007E0008093B0008091910082608093910080910D
:1007F000910081608093910080919000816080934E
:1008000090008091A10082608093A1008091A1005E
:1008100081608093A1008091A00081608093A000FE
:10082000809121018260809321018091210181606A
:10083000809321018091200181608093200180912B
:100840007A00846080937A0080917A00826080933D
:100850007A0080917A00816080937A0080917A009A
:10086000806880937A001092C100E0912202F0919A
:10087000230282E08083E0911E02F0911F02108229
:10088000E0912002F09121028FEC808310922A02E5
:10089000E0912602F091270286E08083E091240215
:1008A000F0912502808180618083E0912402F091A3
:1008B0002502808188608083E0912402F0912502E6
:1008C000808180688083E0912402F09125028081FC
:1008D0008F7D8083E5E1F2E02491EFECF1E08491FB
:1008E000882399F090E0880F991FFC01E855FE4F8E
:1008F000A591B491FC01E257FE4F859194918FB779
:10090000F894EC91E22BEC938FBF82E192E00E948D
:10091000B901181619065CF482E192E00E94970171
:1009200061E0833709F060E08DE00E948F020E9451
:100930005E02EBCFE2E1F2E01382128288EE93E0F6
:10094000A0E0B0E084839583A683B78384E092E03F
:100950009183808385EC90E09587848784EC90E098
:100960009787868780EC90E0918B808B81EC90E07C
:10097000938B828B82EC90E0958B848B86EC90E05D
:10098000978B868B118E128E138E148E0895EE0F18
:10099000FF1F881F8BBF0790F691E02D1994F894E4
:0209A000FFCF87
:1009A20000000000F1015B0188013E02B9019701DC
:0209B200AB0197
:00000001FF
